:020000040800F2
:10000000285B0020695D0008E15D0008E55D0008EF
:10001000E95D0008ED5D0008F15D000800000000EA
:10002000000000000000000000000000E350000895
:10003000F55D0008000000009D5000088D4C000890
:10004000F95D0008FD5D0008015E0008055E00081E
:10005000095E00080D5E0008115E0008155E0008CC
:10006000195E00081D5E0008215E0008855B00081F
:10007000255E0008295E00085B5B00082D5E000815
:10008000315E0008355E0008AD5B0008395E00088F
:100090003D5E0008415E0008455E0008495E0008BC
:1000A0004D5E0008515E0008555E0008595E00086C
:1000B0005D5E0008615E0008655E0008695E00081C
:1000C0006D5E0008715E0008755E0008795E0008CC
:1000D0007D5E0008195B0008815E0008855E0008EF
:1000E000895E00088D5E0008915E0008955E00083C
:1000F000995E00089D5E0008A15E0008A55E0008EC
:10010000A95E0008AD5E0008B15E0008B55E00089B
:10011000B95E0008BD5E0008C15E0008C55E00084B
:10012000C95E0008CD5E0008D15E0008D55E0008FB
:1001300000F5E0700268914203D343681A4491428B
:1001400002D380680028F5D170471849086880B943
:100150004FF4805048604FF480324FF0FF30C86059
:1001600008610420124B8A604861C3F8BC01114841
:1001700008600120704701F1080313F0070F0EBF5C
:100180000023C3F1080303F007031944D21A816165
:10019000C26042F001034B60091D4FF0280C41F88A
:1001A00002C0024A1369C36170470000A4480020DE
:1001B000884400206859883C2DE9F84F84B00646F1
:1001C000AFF30080F52E1E4D80F00F820B2E31BF55
:1001D00010260B36F608F6002868F408E04010F008
:1001E000030F4AD0C04300F00100041905F12800B4
:1001F00000EBC408E700D8F808607068C008C000C9
:10020000B84218BF01F0E2F9D6F80890464508BF99
:1002100001F0DCF94E4508BF01F0D8F97068C0085C
:10022000C000B84218BF01F0D1F9C8450AD128680A
:10023000012101FA04F420EA04042C6010E000BF5C
:10024000884400202869814508D3D9F80C10B142B0
:1002500004D1C8F80890C9F80C8001E001F0B6F9A3
:1002600047F00300311D7060301DCA5942F0010291
:10027000C25106F1080800F010BFA968B14280F031
:100280009F83002800F0A2804FF0010808FA04F1D3
:10029000490000FA04F4484201430C406042044023
:1002A000641E200B00F01000C440610901F0080139
:1002B000CC40A20802F00402D440630803F0020319
:1002C0000818DC401018C4F3400718183818FC4010
:1002D000241805F1280000EBC40AE700DAF80890BA
:1002E000D9F80400C008C000B84218BF01F06EF988
:1002F000D9F808B0D14508BF01F068F9D94508BF61
:1003000001F064F9D9F80400C008C000B84218BF71
:1003100001F05CF9DA4506D1286808FA04F420EA0D
:1003200004042C600DE029698B4508D3DBF80C0030
:10033000484504D1CAF808B0CBF80CA001E001F0A0
:1003400045F9BF1B46F0030009F10402C9F8040097
:1003500047F00101915109EB06020192D751AC68B7
:100360004FEAD40ABAF11F0F88BF01F02FF934B356
:10037000CDF800A005F128006E6900EBCA0AD3464B
:10038000102C38BF01F022F92968009821FA00F2F8
:10039000D30704D408FA00F00843286007E0DAF82D
:1003A0000800296988422CBF834601F00FF9CAF87A
:1003B0000860CBF80C60C6F808B0C6F80CA0AF60B7
:1003C00009F108080198686100F067BE68680028B4
:1003D00000F0178341420840401E010B01F010015C
:1003E000C840420902F00802D040830803F0040329
:1003F000D840440804F002045118E0405918C0F3F2
:100400004007611805F598787918F840401858F8B1
:1004100020104868C008C0008A46A0EB060B08E020
:1004200001464868C008C000801B58453CBF834651
:100430008A4608690028F3D149690029F1D1286961
:100440008245C0F0CF80DAF80410C90806EB0B092A
:10045000C900494518BF01F0B9F80AEB060082450A
:10046000019080F0BF80DAF80C40DAF8187054453B
:100470000DD0DAF808002969884223D3C2685245B2
:1004800004BFA16851451DD1C460A0601CE00AF101
:1004900014010C6834B90AF110010C68A4B101E030
:1004A00011460C6804F114021068002802BF04F120
:1004B000100210680028F3D12869814202D300227B
:1004C0000A6001E001F082F8002F34D0DAF81C0055
:1004D00008EB800001688A4509D1046094B9DAF814
:1004E0001C006968012282409143696023E0286909
:1004F000874205D33969514514BF7C613C6101E0F5
:1005000001F064F8BCB129698C4212D3A761DAF812
:10051000100028B1884226BF2061846101F056F89E
:10052000DAF8140038B12969884202D36061846125
:1005300001E001F04BF8BBF1100F0ED249F00300BF
:100540000AF10401CAF804000AF1040051F8092074
:1005500042F0010240F809203EE046F003010AF1B2
:100560000402CAF804104BF001009051019941F8BF
:100570000BB0A8680090C4081F2C88BF01F026F8B3
:10058000009828B305F1280000996F6900EBC408B2
:10059000C146102938BF01F019F8286820FA04F183
:1005A000CA0705D4012101FA04F404432C6007E0D2
:1005B000D8F80800296988422CBF814601F006F866
:1005C000C8F80870C9F80C70C7F80890C7F80C8014
:1005D000C5F808B0019868611AF1080800F0F081C8
:1005E00000F05BBD00F0F2FFEAE116F1400F28BF1A
:1005F0004FF0FF3680F0E4810B36F6086B68F600AA
:10060000002B00F0DD810027300AC6F1000908BF89
:10061000002423D0B0F5803F28BF1F241ED2A0F5B0
:100620008071090C01F008018840A0F58052120C7D
:1006300002F004029040A0F58044240CC1F10E01A8
:1006400004F00204891A091BA04001EBD031C81D37
:1006500026FA00F404F0010404EB410405F598784F
:1006600058F8240030B31F2C0FBFB4464FEA540C87
:10067000CCF1190C06FA0CFCBE46494601E04FEAE3
:100680004C0C4268D208D200921B8A4202D211005E
:1006900007460CD0426910304FEADC7950F8290047
:1006A000002A1CBF824296460028E8D1704689463F
:1006B000A8BBB7BB012101FA04F464006042044303
:1006C000234000F07D81584203405B1E180B00F070
:1006D0001000C340590901F00801CB409A0802F00C
:1006E0000402D3405C0804F002040818E340101828
:1006F000C3F3400C2018604423FA0CF31B1858F87D
:1007000023000CE008464168C908C900891B494517
:100710003CBF8946074601690029F3D1406900289A
:10072000F1D1002F00F04C81A868801B814580F03A
:10073000478129698F42FFF455AF7868C008C0002F
:1007400006EB0901884218BF00F040FF07EB060BDB
:100750005F45BFF447AFFC68D7F818A0BC420CD087
:10076000B8682969884223D3C268BA4204BFA16825
:10077000B9421DD1C460A0601CE007F114010C68EF
:1007800034B907F110010C68A4B101E011460C68FE
:1007900004F114021068002802BF04F1100210686E
:1007A0000028F3D12869814202D300220A6001E0C7
:1007B00000F00CFFBAF1000F34D0F86908EB8000AC
:1007C00001688F4208D10460A4B9F8696968012200
:1007D00082409143696025E02869824508D3DAF8B0
:1007E0001010B94214BFCAF81440CAF8104001E012
:1007F00000F0ECFEB4B129698C4211D3C4F818A002
:10080000386928B1884226BF2061846100F0DEFE8D
:10081000786938B12969884202D36061846101E056
:1008200000F0D4FEB9F1100F0CD2B14449F003002E
:10083000391D7860381D51F8092042F0010240F856
:100840000920B9E046F003013A1D796049F0010042
:1008500090514FEAD9004BF809901F2822D805F192
:10086000280101EBC004296821FA00F2D307A04651
:1008700005D4012202FA00F00843286006E0A068CF
:10088000296988422CBF804600F0A0FEC4F808B059
:1008900007F10800C8F80CB040F8068007F10C0119
:1008A0008C5189E05FEA192008BF002123D0B0F500
:1008B000803F28BF1F211ED2A0F58072120C02F0CB
:1008C00008029040A0F58051090C01F00401884015
:1008D000A0F580431B0CC2F10E0203F00203521A72
:1008E000D21A984002EBD032D01D29FA00F101F063
:1008F000010101EB420107F11403CBF81C100022A7
:100900009A5107F1100308EB81009A516A6822FAA4
:1009100001F3DC0711D4012303FA01F111436960EB
:10092000C0F800B0CBF8180007F1080107F10C007F
:1009300040F806B041F806B03EE002681F291DBF2E
:100940004908C1F1190109FA01F1494600E00246DE
:100950005068C008C000484518D002F11003C80F05
:1009600003EB8003490018680028F0D1286983420E
:1009700020D3C3F800B007F10C01CBF8182041F8E0
:1009800006B007F1080040F806B015E02969906844
:100990008A4228BF88420DD3C0F80CB007F1080185
:1009A000C2F808B0885107F10C0082510022CBF840
:1009B000182001E000F00AFE17F1080840F06D83EE
:1009C000A868B0421DD3811B6A6910290AD3901907
:1009D0006861A96041F001034360415046F003069D
:1009E00056600BE00021A9606961131D40F003010E
:1009F0005160111D1C5844F001040C5002F108080C
:100A00004BE3E8688642C0F03883DFF8B89BD9F83A
:100A1000000008B9FFF799FBD9F8081088192F30A2
:100A2000491E20EA01018E4280F0358305F5D87712
:100A3000B86838B13A6889188A4280F02C838842B5
:100A4000C0F0298300F0E2FD00281CBFD0F8008030
:100A500010F1010F00F01F8339687A684144396052
:100A60008A4238BF7960AC6904BB296909B1884200
:100A700000D2286100213861C7F81480F9614FF075
:100A8000FF31D9F800206A62296205F128020021AD
:100A9000D260926002F1080454611461891C103222
:100AA0001F29F5D9A8F1280201461DE005F5E071DE
:100AB0000A46814600E09268D2B110685368034448
:100AC0009945F8D1107B030712D413689C420FD3C9
:100AD000D2F804C063449C420AD2C444C2F804C0A1
:100AE0002146E86808EB00022846FFF744FBC1E214
:100AF0002869814538BFC5F8109009EB080000E06F
:100B00008968002900F0BD810A688242F8D1087B1B
:100B1000020700F1B6810868C1F800904A684244B3
:100B20004A6009F1080111F0070F08BFCDF80490E1
:100B300006D0C1F1080101F0070109EB01020192A1
:100B400000F1080111F0070F04D0C1F1080101F014
:100B50000701084480460198A8EB00018419A1EB25
:100B6000060B274646F003064660474528BF00F0BF
:100B70002DFD98F80400C10758BF00F027FDBBF118
:100B8000100F38BF00F022FDA869804508D1E96840
:100B90008B44C5F80CB0AF614BF0010078606CE19C
:100BA000686980450AD1A9688B44C5F808B06F61AF
:100BB0004BF00100786047F80BB05EE1D8F8040014
:100BC00000F00301012940F0B880C008C000C1084E
:100BD0001F29039040D8D8F808200092D8F80C605C
:100BE0000291B04508BF00F0F1FC0098804508BFB5
:100BF00000F0ECFCD8F804000299C008C000B0EB8B
:100C0000C10F18BF00F0E2FC0299009A05F128001C
:100C100000EBC100824208D011462A699142C0F01F
:100C20008780CA68424540F0838000998E4206D191
:100C300002982A68012383409A432A607AE0864218
:100C400005D029698E4273D3B068404570D10098B1
:100C5000C6600099B1606DE0D8F818000090D8F82F
:100C60000C6046450DD0D8F808002969884223D386
:100C7000C268424504BFB16841451DD1C660B0603D
:100C80001CE008F114010E6836B908F110010E6875
:100C9000A6B101E011460E6806F1140210680028A2
:100CA00002BF06F1100210680028F3D128698142C2
:100CB00002D300220A6001E000F088FC00980028BE
:100CC00038D0D8F81C0005F5987101EB8000016858
:100CD000884509D106609EB9D8F81C0069680122D0
:100CE00082409143696025E000982969884205D3D4
:100CF0000169414514BF4661066101E000F066FCF0
:100D0000C6B129698E4213D30098B061D8F810009B
:100D100028B1884226BF3061866100F057FCD8F8C0
:100D2000140038B12969884202D37061866101E0FC
:100D300000F04CFC039988448B44D8F8041049080F
:100D40004900C8F804104BF0010078604FEADB0658
:100D500047F80BB01F2E22D805F1280000EBC6047F
:100D6000A146BBF1100F38BF00F030FC286820FA14
:100D700006F1CA0705D4012101FA06F606432E60E2
:100D800006E0A068296988422CBF814600F01EFC5D
:100D9000A760C9F80C70C7F80890FC606DE05FEAC6
:100DA0001B2008BF002123D0B0F5803F28BF1F21A2
:100DB0001ED2A0F58072120C02F008029040A0F53D
:100DC0008051090C01F004018840A0F580431B0C00
:100DD000C2F10E0203F00203521AD21A984002EB3B
:100DE000D032D01D2BFA00F101F0010101EB4201DC
:100DF000F961002305F598727B6102EB81003B618C
:100E00006A6822FA01F3DE0707D4012303FA01F12D
:100E1000114369600760B8611DE002681F291DBFAA
:100E20004908C1F119010BFA01F1594600E00246E7
:100E30005068C008C000584510D002F11003C80F18
:100E400003EB8003490018680028F0D12869834229
:100E500011D31F60BA61FF60BC600EE02969906821
:100E60008A4228BF884206D3C7609460B860FA609F
:100E70000020B86101E000F0A9FB019800F108082A
:100E80000BE121462846FFF753F901684068084402
:100E90000090A0F1270111F0070000980EBF00217B
:100EA000C1F1080101F007010844A0F12F0B04F182
:100EB00010018B4538BFA3460BF1180200210292A6
:100EC0000191A8F1280249462846FFF754F90BF191
:100ED000080010F0070F18BF00F078FB1B20CBF8BC
:100EE000040005F5E07292E809500BF1080181E871
:100EF000095000210BF10800F961B861009A0298CD
:100F00000199C7F81090C7F81480072300E0001D6E
:100F1000491C00F1080797424360F8D30129D8BF64
:100F200000F054FBA34500F0A580ABEB040B201DA3
:100F3000221D50F80B104908490042F80B104BF0E5
:100F4000010060604FEADB0944F80BB0B9F11F0FF4
:100F500022D805F1280000EBC907B846BBF1100FF5
:100F600038BF00F033FB286820FA09F1CA0705D41E
:100F7000012101FA09F10843286006E0B8682969EF
:100F800088422CBF804600F021FBBC60C8F80C40B2
:100F9000C4F80880E7606DE05FEA1B2008BF00210D
:100FA00023D0B0F5803F28BF1F211ED2A0F580724C
:100FB000120C02F008029040A0F58051090C01F0DB
:100FC00004018840A0F580431B0CC2F10E0203F01F
:100FD0000203521AD21A984002EBD032D01D2BFADB
:100FE00000F101F0010101EB420105F598720023C7
:100FF00002EB8100E161636123616A6822FA01F317
:10100000DF0707D4012303FA01F11143696004608B
:10101000A0611DE002681F291DBF4908C1F1190127
:101020000BFA01F1594600E002465068C008C000C2
:10103000584510D002F11003C80F03EB800349009C
:1010400018680028F0D12869834211D31C60A2617E
:10105000E460A4600EE0296990688A4228BF884253
:1010600006D3C4609460A060E2600020A06101E04B
:1010700000F0ACFAE86886420DD2801BA969E860EE
:101080008A19AA6140F00100506046F003064E60E4
:1010900001F1080801E04FF00008AFF3008040467E
:1010A00005B0BDE8F08F002800D170472DE9F0476A
:1010B000A0F10805AFF30080DFF80C6531698D42BF
:1010C000C0F07A82686800F00302012A00F074829E
:1010D000C2084FEAC209C20705EB090839D42C68D7
:1010E00010F0030F00F06A82604205448D42A14473
:1010F000C0F062827069854200F0DA80E408202C3A
:1011000072D2D5F80CA0AF68554508BF00F05EFA62
:10111000BD4208BF00F05AFA6868C008C000B0EBD2
:10112000C40F18BF00F052FA06F1280000EBC4000B
:10113000874205D031698F4253D3FA68AA4250D111
:10114000BA4540D13068012101FA04F420EA0404D0
:101150003460454580F03082D8F80440E00740F123
:101160002B82A10700F17C81B069804540F0B380FB
:10117000F168B5618944C6F80C9049F001006860D7
:1011800071698D4202D100207061B060F1694945FA
:1011900080F01482DFF82C24106808B9FEF7D5FF20
:1011A000B169002900F00A82F068292824BF30467E
:1011B000FEF7BEFFF069F168884280F0FF814FF0D2
:1011C000FF30F061FAE1824506D03069824508D3EC
:1011D000DAF80810A94204D1C7F80CA0CAF80870C0
:1011E000B7E700F0F3F9B4E7EC68AF69AC420BD0B5
:1011F000A868884222D3C168A94204BFA268AA4253
:101200001CD1C460A0601BE005F11402146834B95D
:1012100005F1100214689CB101E01A46146804F14B
:1012200014031868002802BF04F11003186800288E
:10123000F3D18A4202D30021116001E000F0C6F927
:10124000002F86D0E96906F5987000EB81000268EE
:10125000954209D10460200011D1E869716801222A
:1012600082409143716074E73069874205D33969E0
:10127000A94214BF7C613C6101E000F0A7F9002C99
:101280003FF467AF31698C42ABD3A761286928B1BD
:10129000884226BF2061846100F098F968690028BF
:1012A0003FF457AF316988429BD36061846150E756
:1012B00098F8040000F0030003287FF44AAFC6F852
:1012C000089049F00101D8F8040040084000C8F82F
:1012D000040069600AE0706980450AD1B1687561EF
:1012E0008944C6F8089049F00100686045F8099003
:1012F00064E1E408E400A144E408202C3AD2D8F8E0
:101300000CA0D8F80870D04508BF00F05FF9B845C8
:1013100008BF00F05BF9D8F80400C008C000B0EBCB
:10132000C40F18BF00F052F906F1280000EBC4000A
:10133000874207D031698F42C0F08580FA68424504
:1013400040F08180BA4507D13068012101FA04F4E8
:1013500020EA0404346078E0824506D03069824592
:1013600071D3DAF8081041456DD1C7F80CA0CAF85E
:1013700008706AE0D8F80C40D8F8187044450DD0D1
:10138000D8F808003169884223D3C268424504BFB7
:10139000A16841451DD1C460A0601CE008F11401A2
:1013A0000C6834B908F110010C68A4B101E01146D1
:1013B0000C6804F114021068002802BF04F1100246
:1013C00010680028F3D13069814202D300220A60FC
:1013D00001E000F0FBF8002F37D0D8F81C1006F51C
:1013E000987000EB8100026890450AD104602000EB
:1013F00012D1D8F81C0071680122824091437160BB
:1014000023E03069874205D33969414514BF7C61C7
:101410003C6101E000F0DAF8BCB131698C4212D3D2
:10142000A761D8F8100028B1884226BF20618461E6
:1014300000F0CCF8D8F8140038B13169884202D3F2
:101440006061846101E000F0C1F849F0010068606A
:1014500045F8099071698D420BD1C6F80890ADE04E
:1014600064086400C8F8044049F00100686045F869
:1014700009904FEAD907202F22D206F1280000EB6D
:10148000C704A046B9F1100F38BF00F09FF83068CC
:1014900020FA07F1CA0705D4012101FA07F707432B
:1014A000376006E0A068316988422CBF804600F0B2
:1014B0008DF8A560C8F80C50C5F80880EC607DE098
:1014C0005FEA192008BF002123D0B0F5803F28BF74
:1014D0001F211ED2A0F58072120C02F0080290406B
:1014E000A0F58051090C01F004018840A0F580436B
:1014F0001B0CC2F10E0203F00203521AD21A9840DA
:1015000002EBD032D01D29FA00F101F0010101EB0C
:10151000420106F59872002302EB8100E9616B61DC
:101520002B61726822FA01F3DC0707D4012303FA66
:1015300001F1114371600560A8611DE002681F2977
:101540001DBF4908C1F1190109FA01F1494600E03E
:1015500002465068C008C000484510D002F1100390
:10156000C80F03EB8003490018680028F0D13069E8
:10157000834211D31D60AA61ED60AD600EE0316958
:1015800090688A4228BF884206D3C5609560A860EB
:10159000EA600020A86101E000F018F8306A401EFF
:1015A00030620BD1D6F8C80100E080680028FCD179
:1015B0004FF0FF30306201E000F008F8AFF3008038
:1015C000BDE8F087A448002088440020012000F0F6
:1015D00033B830B4002513E050F8042BD30744BFD0
:1015E000A9F101039A18091F042942F8045BFAD2F1
:1015F00013468C0744BF15809B1CC90748BF1D704C
:1016000050F8041B0029E7D130BC7047074908682F
:1016100008B1002070470648C008C00008600549AE
:10162000C908C900091A0160704700BF804900203D
:101630002F5B0020286B002080B5AFF30080024AAA
:1016400011001820ABBEFBE7260002002DE9F14F88
:10165000B2B09946924600230691CDE900333C9AF8
:101660000F930DF14A0114914A7011E0329E5746D2
:101670002C4617F8011B0698B0470028069000F08A
:1016800026810F98401C641E0F90F2D13296AA4416
:101690009AF80000252808D10021002209910A9219
:1016A0000B910C920D910E920FE06A464FF0FF31B4
:1016B000504601F071F8050002D10F9800F066BEA7
:1016C000D4D50125E3E741F001011AF8010F2028E4
:1016D000F9D023280CD02B2804D02D2805D0302871
:1016E00009D00BE041F00201EFE741F00401ECE723
:1016F00041F00801E9E741F01001E6E72A280FD19F
:10170000D9F8002052F8040BC9F8002000281190E5
:1017100003D54042119041F004010AF1010A14E09E
:101720001192DFF8EC3B0AE01198984205DA00EBE1
:10173000800402EB4402303A11920AF1010A9AF84D
:101740000020A2F130000A28EED39AF800002E28DB
:1017500003D04FF0FF32109229E01AF8010F2A2827
:1017600009D1D9F8000050F8042BC9F800001092F4
:101770000AF1010A1BE02D280CBF0AF1010A002022
:1017800000221092DFF8882B0BE040B9109B9342A7
:1017900005DA03EB830504EB4504303C10940AF1B1
:1017A000010A9AF80040A4F130030A2BEDD3ADF8FA
:1017B00048100FF660309AF8001000F0F7FF08B1FB
:1017C0001AF8010B8DF84A009DF84A00682805D1E7
:1017D0009AF8000068280CD1622106E06C2804BF4A
:1017E0009AF800006C2804D171218DF84A100AF192
:1017F000010A1FA808901AF801BBBBF125012DD0E2
:101800001C3900F06181091F022940F25D810E3907
:101810002AD0491F00F0B384093900F05581891E90
:1018200000F04985491E00F0F584491E022940F266
:101830004B81091F00F0EE84491F00F0BA80491E59
:1018400000F09D84491E65D0C91E21D0891E00F07C
:101850009684C91E00F0938400F04CBD25238DF8BA
:101860007C30012109912AE06C208DF84A00D9F8DA
:10187000000050F8042BC9F80000002A43D1149945
:10188000487800283DD04FF0FF340FF6902012E04A
:101890009DF84A006C28EAD0D9F8000050F8044BB3
:1018A000C9F800000794D4B91499487898B14FF05A
:1018B000FF340FF6842000F089FF201A07D13298F8
:1018C0001FAA04A900F065FD00287FF5E1AE4FF0E6
:1018D000FF3000F05BBD0FF67C200790EFE7109D16
:1018E000002D04D5204600F091FF044607E02A466B
:1018F000204600F0A7FF002814BF041B2C460A94C2
:10190000DDE70FF65422329804A900F0C8FD002844
:10191000D5D5DCE7D9F8001051F8040BC9F8001050
:1019200020F00004002121F0FF351FABCDE9044574
:101930000793DDE9042308993C2413B90AB91098E8
:1019400098B102F00F053035641EEEB23A2EA8BFF2
:101950002735120942EA03721B090D5508BF002AF8
:1019600003D007980D19A842EBD308190790C4F1CA
:101970003C0210980A92824209DABDF84810821A95
:101980004FF6EF7001400C92ADF8481097E7002831
:1019900095D59DF8480000F0140010288FD1119BB8
:1019A00009990C985B1A1B1A9A1A002A87DD0C9267
:1019B00085E71499487820B14FF0FF340FF69C105A
:1019C00079E79DF84A00622862D0682819D06A2811
:1019D00040D06C2806D071284DD074282DD07A289C
:1019E0001ED064E0D9F8001051F8040BC9F80010BB
:1019F00020B94FF0FF340FF67C105CE70F990160BF
:101A00005DE7D9F8001051F8040BC9F8001020B9AF
:101A10004FF0FF340FF65C104DE70F9901804EE751
:101A2000D9F8001051F8040BC9F800100028E5D1CE
:101A30004FF0FF340FF63C103DE7D9F8001051F895
:101A4000040BC9F800100028D8D14FF0FF340FF66E
:101A5000241030E7D9F8001051F8040BC9F8001031
:101A600020B94FF0FF340FF60C1024E70F9AD3176C
:101A7000C0E9002323E7D9F8001051F8040BC9F896
:101A800000100028F2D14FF0FF340FF6E80012E703
:101A9000D9F8001051F8040BC9F8001020B94FF024
:101AA000FF340FF6D00006E70F99017007E7D9F869
:101AB000001051F8040BC9F8001000289ED14FF017
:101AC000FF340FF6B000F6E6D9F80020D21D22F060
:101AD0000702C9F80020D2E900010832C9F8002045
:101AE000CDE90401C80F02D009982D210AE0BDF804
:101AF0004800810702D509982B2103E0C00705D5CE
:101B0000099820211FAA1154401C0990DDE90423E3
:101B100009991FA8CDE92E2308444BF02001612923
:101B2000079015AC0BD01099002902D50621109111
:101B300005E001BF4BF02001672901221092DDE989
:101B4000042359004915491C10D11A030ED0ABF1DA
:101B5000610503211A2D0A9102D20FF6A43101E08A
:101B60000FF6A031032200F099FEA8E659004915AE
:101B7000491C0AD11A0308D1ABF1610503211A2DC2
:101B80000A9116D30FF68431ECE7DDE90401CDE9C3
:101B90003001DDE9302323F00047B7F5801F22F044
:101BA00000060DD20022002F08BF002E029203D1A2
:101BB00016E00FF65431D5E702AA00F0C3FE0FE09D
:101BC000DFF8EC0ADFF8EC1A00EB17500290DDE9C1
:101BD00030234FF0FF301940DFF8DC7A10403943F2
:101BE000CDE904014BF0200061280DD10798302188
:101BF0000170821CBBF1610F07920CBF7821582144
:101C000041700998801C0990DDE9040120F0000270
:101C100031F0004308BF002A02D10026002571E1FF
:101C20004BF02008B8F1610F40F0BE8010980028FA
:101C300047BF21210391401C0390039FDDE92E0142
:101C40007F1C00220023DDE9044500F0B3FE029969
:101C50008DF8542038BF85F00045091F002F0291F0
:101C60000DF155065DDDDFF8541ACDE9302140F263
:101C7000FF732E93204629460022002300F0B2FE77
:101C80004FD24800400D00F11C0215D0002A13DD90
:101C90002E9B9A420ADBDDE9300121F0004205F07B
:101CA00000400243DDE93001114611E06FF31E519F
:101CB00041EA025120460BE024F0000035F00041DB
:101CC00008BF00280FBF29461C22294600F0A2FEAB
:101CD00004460D4600F03CFFFF1F002F804609DD43
:101CE00000F054FF02460B462046294600F060FFF4
:101CF00004460D46F01D0721B8F1000F0CDD491E0A
:101D00005EBF08F00F0200F8012D4FEA2818F3D546
:101D100002E0002200F8012D491EFAD5C61D002F51
:101D2000A8DC0DF15500361A03988642D8BF30461C
:101D300000280DF1550430D4B04206DA0DF15501FA
:101D40000A5C082AA8BF0F2100DA0021024615AB61
:101D5000134400E0401E13F80159521E8D42F9D081
:101D60000F2904D10DF155018B5C5B1C8B54002AAB
:101D700004D50299091D15AC401C0291411E0CD4DA
:101D80006218ABF13A0613783033DDB23A2DA8BFB2
:101D9000F318491E02F80139F5D51099002940F1D0
:101DA000AF80421E1092ABE00299DFF8142947F28F
:101DB0009750414391FBF2F2DDE92E45029225F066
:101DC0000045D2F1070204DD2046294600F04CFC14
:101DD0000BE052420020DFF8EC1800F045FC024610
:101DE0000B462046294600F055FF0446B8F1660F21
:101DF000109806BF029F0A3706273F18142FC8BF46
:101E0000142730208DF854000D460020DFF8B81854
:101E1000CDE92E010DF15506002F33DD2046294670
:101E200001F05CF801460A4606F1080304200A2680
:101E3000B2FBF6F606EB860EA2EB4E02303203F84A
:101E4000012C0A22B6FBF2F202EB820EA6EB4E0642
:101E50003036401E03F8026DE9D1083F002F03F130
:101E60000806D9DD084601F04DF802460B4620462B
:101E7000294600F09DFEDDE92E2301F051F80446CD
:101E80000D46CBE70DF15500361A0DF1550404E06F
:101E90000298401E761E0290641C20783028F7D0ED
:101EA000B8F1660F02D10299491C04E0B8F1650F40
:101EB0000CBF01210021109808188642B8BF701E7F
:101EC00000281DD4B04204DA215C3429C8BF39216E
:101ED00000DC30210246631E9D1800E0401E15F80C
:101EE0000169521E8E42F9D0392902D1A15C491CE8
:101EF000A154002A04D50299491C1C46401C029199
:101F00000646029D00F04CFC406A0778DDF84080F0
:101F100030B2002802DC01260FF2F4744BF02000EE
:101F2000662808BF6D1C16D0672846D128B210F16C
:101F3000040F48DB404546DA9DF848006D1C010758
:101F400003D430B24045B8BF804628B2B8EB000891
:101F500048BF4FF000080FFA85FB07980A99BBF1BC
:101F6000000F00F3B2804A1C0A9230234354B8F1A8
:101F7000000F03DC9DF84800010704D50A98411CB6
:101F80000A9107990F5418EB0B0FB8BFC8F1000561
:101F90002DB268420D90A84432B29045B8BF464673
:101FA000079B0A9836B20B9632462146184400F039
:101FB00075FCA8EB06000E90CBE0BBF1610F17D1CA
:101FC0004FF0700B19E030B2404504DA9DF848102C
:101FD0000A0758BF8046B8F1010848BF4FF0000813
:101FE000BBF1670F14BF4FF0450B4FF0650B04E0DA
:101FF000BBF1410F08BF4FF0500B0A98411C0A91EA
:10200000B8F1000F079914F8012B0A5403DC9DF86E
:10201000480001071AD50A98411C0A91B8F1000F2F
:1020200007990F5412DD761E30B2804507980A9B3F
:10203000B8BF464632B22146184400F02FFC0A9938
:1020400036B271180A91A8EB06000D9007980A990C
:1020500008442AB2002A80F800B003D42B22427030
:10206000811C04E02D2141701546811C6D42002029
:102070002EAA0A2409E02B4693FBF4F505EB85060E
:10208000A3EB460302F8013B401C2DB2002DF2DC0D
:10209000012806DC4BF02002652A04BF302201F83B
:1020A000012B00282EAA08D1302001F8010B06E0F0
:1020B000401E135C303301F8013B0028F8DC079A1E
:1020C0000A981044091A0B9143E0084431B22AB22D
:1020D000914219DA32B2214600F0E0FB0A9936B299
:1020E0007118ABEB0606B8F1000F0A910D9603DCF0
:1020F0009DF84800020704D5079847540B99491CDE
:102100000B91CDF8388024E0214600F0C7FB0A98F7
:10211000761B5844B8F1000F0A9003DC9DF8481074
:102120000A0703D5411C0A9107990F5430B2804524
:1021300007980A9BB8BF464632B204EB0B0118441D
:1021400000F0ACFB0A9836B230180A90A8EB0600F3
:102150000D909DF8480000F0140010287FF4AFABFC
:10216000099A0A990D988A180B9982180E988A185C
:10217000821811988242BFF6A2AB821A17E49DF82A
:102180004A00622808D068280ED06A2814D06C282B
:102190001FD0712810D01CE0D9F8001051F8040BA2
:1021A000C9F80010C0B21AE0D9F8001051F8040BB9
:1021B000C9F8001080B212E0D9F80020D21D22F038
:1021C0000702C9F80020D2E900010832C9F800204E
:1021D00006E0D9F8001051F8040BC9F800100021EE
:1021E000CDE904019DF8480001075AD5DDE9042333
:1021F000002B08BF002A54D04BF02000782850D183
:1022000009981FA930220A54401C431C099301F865
:1022100000B046E09DF84A00622808D068280ED039
:102220006A2814D06C281FD0712810D01CE0D9F86F
:10223000001051F8040BC9F8001040B21AE0D9F8A8
:10224000001051F8040BC9F8001000B212E0D9F8E0
:102250000020D21D22F00702C9F80020D2E90001B7
:102260000832C9F8002006E0D9F8001051F8040B34
:10227000C9F80010C117CDE90401002902D5099859
:102280002D210AE0BDF84800810702D509982B21CD
:1022900003E0C00705D5099820211FAA1154401C4E
:1022A00009901FA809990144079104A8594600F014
:1022B00056F9FFF704BB9DF84A006C280BD00121AA
:1022C0000991D9F8000050F8041BC9F800008DF8F6
:1022D0007C10FFF7F4BAD9F8000050F8041BC9F8D5
:1022E000000015914FF0FF3210920021169115AAAF
:1022F000FFF709BB25210122BBF1000F8DF87C10EF
:1023000009923FF4DCAA8DF87DB00221FFF7AABA4A
:10231000CBCCCC0C686A6C747A4C00007072696E1D
:1023200074665F733A2062616420256C7320617269
:1023300067756D656E7400007072696E74665F73A8
:102340003A2062616420257320617267756D656E45
:102350007400000000000000000000007072696E50
:1023600074665F733A20256E20646973616C6C6FCC
:10237000776564007072696E74663A2062616420E9
:10238000256E20617267756D656E740033B0BDE8AF
:10239000F08F2DE9FC410F46064690467A6B78692E
:1023A000396ABC6A121AB869521A796A121AF8693B
:1023B000521A121A97F83800141B41070FD4202024
:1023C000002C8DF800000ADD254601236A463946B7
:1023D000304600F07DF900285DD16D1EF5D17B6996
:1023E00042463946304600F073F9002853D1302078
:1023F0008DF800003D6A002D09DD01236A4639464B
:10240000304600F065F9002845D16D1EF5D1BB6955
:10241000FA683946304600F05BF900283BD130209D
:102420008DF800007D6A002D08DD01236A463946DB
:10243000304600F04DF970BB6D1EF6D1F868B969F1
:10244000FB6942183946304600F042F918BB30208B
:102450008DF80000BD6A002D08DD01236A4639466B
:10246000304600F035F9B0B96D1EF6D197F8380056
:1024700041070DD52020002C8DF8000008DD012338
:102480006A463946304600F023F920B9641EF6D179
:102490000020BDE8F6814FF0FF30BDE8F6812DE960
:1024A000F8470D46A3B02F6B002F8246904648BFD9
:1024B0006FF0004700F005FE696B401801AA00218B
:1024C000C2E90011812828BF4FF0FF3044D289466D
:1024D0001EE0A74230DB6869201881280BD3002159
:1024E000696303AA29465046FFF753FF5FEA0009D4
:1024F00022D40020686103AB6E69224669469819B0
:1025000000F0CCF9A6196E6158F8040BA0B13F1B7E
:10251000002F11DDD8F8001001AA684600F03EF93E
:102520000446002C05D4D8F800000028D1D1641E40
:10253000CFD54FF0FF390EE0B9F1000F504604D16E
:1025400003AA2946FFF725FF8146B9F1000F02D102
:10255000002068616863484624B0BDE8F0872DE933
:10256000FC4307466F293E6908BF082405D041F0A7
:102570002000782814BF0A2410243C25D7E9002322
:10258000642918BF69299046994605D1002B03D5C7
:10259000D8F1000869EB4909B9F1000F08BFB8F19B
:1025A000000F0CD1386B50B9082C39D197F838008E
:1025B000010735D530203B2586F83B0030E08DF80B
:1025C0000010404649462246E31700F07FFD3032B6
:1025D000D0B26D1E3A28019504DB9DF80000A0F1F1
:1025E00051018A187255404649462246E31700F0C9
:1025F0006DFD80465FEA010908BFB8F1000F03D006
:10260000F86871198842DCD3082C09D197F8380092
:10261000010705D5705D302802D06D1E3020705541
:10262000C5F13C02BA617119F960386B824208DA6F
:10263000821A3A624FF6EF70398F01403987BDE850
:10264000F38300280ED597F8380000F01400102806
:1026500008D17B6B7969386A5B1A1B1A9A1A002AAF
:10266000C8BF3A62BDE8F3832DE9D04306460F4662
:1026700014464FF00008DFF8549012E0E00707D549
:1026800042464B463046394600F04AFC06460F4665
:102690004046494642464B4600F042FC64108046A4
:1026A0008946002CEAD130463946BDE8D083000087
:1026B00002FCFFFFFFFF0F800000E03F0000F07F03
:1026C000A08601000000F03F84D79741000024401D
:1026D000F8B505460E4617461C4600205CB117F8B3
:1026E000011BB068A847B06030B1F06A401CF062CE
:1026F0000020641EF3D1F2BD4FF0FF30F2BD0000A8
:102700006E616E004E414E00696E6600494E460095
:102710003000B1F5807F02D34FF0FF307047017079
:10272000012070470078401E8041C043C00F7047B1
:102730001C48704770B45368D41801E05B1C491EF4
:10274000042B08DA00291FBF057804F8015B10F894
:10275000016B002EF2D1536070BC704738B514463F
:102760001D4661B1FFF7E6FF61686A6B204690473E
:102770006FF00102811A02D0491E01D001E003E08E
:1027800005E00021616032BD6FF0010032BD4FF005
:10279000FF3032BDDA6B1047024BDFE7014BF9E740
:1027A000014870474000002008000020C9B20278AC
:1027B0008A421AB11CBF10F8012FF9E718BF002098
:1027C00070470268531C03601170704780B500B9F0
:1027D00006A005490B681BB122220021984701E0A1
:1027E000FEF7F4FE222002BD7C490020636F6E7369
:1027F000747261696E742068616E646C65723A20EF
:10280000626164206D6573736167650000F10103A7
:10281000810704D010F8011B820781B1FAD1026848
:10282000A2F10131914311F0803104BF50F8042F1F
:10283000F6E709BAB1FA81F100EBD100401CC01AE9
:1028400070470800C9B2830706D0521E22D310F881
:10285000013B9942F7D11FE0083A13D302F1040279
:1028600041EA012141EA014150F8043B121F21BF16
:102870004B40A3F1013C2CEA030C1CF0803FF3D049
:10288000C9B2001F083210F8013B521E28BF91EA5E
:10289000030FF8D818BF0120401E704762B38B07A2
:1028A00008D0521E11F8013B00F8013B00F02480D3
:1028B0008B07F6D1830740F0208000BF103A07D382
:1028C00030B4B1E83810103AA0E83810F9D230BC72
:1028D000530724BFB1E80810A0E8081044BF51F81E
:1028E000043B40F8043BD20724BF31F8022B20F808
:1028F000022B44BF0B7803707047121F17D35B0085
:1029000009D151F8043B20F8023B1B0C121F20F8A0
:10291000023BF6D20BE051F8043B00F8013B1B0AE6
:1029200020F8023B1B0C121F00F8013BF3D238BF0A
:10293000121D521E24BF11F8013B00F8013BF8D8CC
:1029400070472E0010B5144600F002F8226010BD4A
:10295000C1F30A5343B14A0012F5001F28D2A3F273
:10296000FE32A1EB0251704750EA410C20D001F039
:10297000004C31EA0C01B1FA81F204BFB0FA80F3E5
:10298000D2180B3AB2F120032CBF00FA03F19140A8
:1029900041EA0C013EBFC2F1200C20FA0CF31943AE
:1029A0009040524240F2FD33D21A01EB035170477E
:1029B000002270474FF4001C1CEB410F94BF1CEB2E
:1029C000430F09E041EA030C50EA4C0C52EA0C0CAC
:1029D00003D2994208BF9042704714BF8B42824293
:1029E000704743004FF4001C1CEB410F94BF1CEBDD
:1029F000430F09E041EA030C50EA4C0C52EA0C0C7C
:102A000003D28B4208BF8242704714BF9942904262
:102A100070470000124254D440F2FF7C1CEA11536C
:102A20000FD0634531D09B1863453CBF01EB025189
:102A3000704701F0004141EA0C510020AFF30080E3
:102A4000704750EA410320D001F0004C91EA0C019C
:102A50001CD0B1FA81F30B3B9A420DD9D21A99409E
:102A600051EA0C01C3F1200C20FA0CFC614498409F
:102A7000531C40F2FF7CD7E7914041EA0C01C2F1C0
:102A8000200C20FA0CF3194390407047B0FA80F301
:102A90001533202BE0D3202AEED3203A203B9A4254
:102AA00009D9D21A00FA03F141EA0C010020531CA3
:102AB00040F2FF7CB8E700FA02F141EA0C01002085
:102AC0007047524240F2FF7C1CEA11530DD063451F
:102AD000DBD0B2EB030C3CBFA1EB025170470CF111
:102AE000010221EA035141F4801150EA410CCCD09B
:102AF00001F0004C352A27DC30B481EA0C01B2F138
:102B0000200309DAC2F12003044601FA03F5D0409C
:102B10002843D1409C400CE0C3F12002450020FA3C
:102B200003F418BF44F0010421FA03F091400C4370
:102B3000002174F1004550F1000051EB0C012442DA
:102B400030BC7FF47BAF70476146002076E7000021
:102B5000C1F30A5340F2FE329B1A14DDD3F1200375
:102B60004FEAE17208DDC90241EA505141F00040EC
:102B7000D84080185040704703F2E13010B1D24382
:102B800082F000407047002070470000C11768B114
:102B90004840401AB0FA80F29040D21CC907C2F5F2
:102BA000846241EA025202EBD021400570470000E6
:102BB00070B44FF0004591EA030F40F1A7836B40DA
:102BC000841A71EB030603D2001BB1411219734141
:102BD0004FF4001C1CEB410F34BF7CEB430442E07C
:102BE0000C0DA4EB1356352E4FDC45EAC323DB0A4C
:102BF00045EAC121C912B6F120050DDD63FA05F6DB
:102C0000EB4086EA0305124218BF45F00105C018E3
:102C100051F100010CD213E062FA06F5F240554082
:102C2000F3415A40B340F3405A408018594107D30A
:102C300049085FEA30005FEA350528BF45F0010525
:102C400001F58011420875F1004250F1000041EB9E
:102C500004514E0016F5001F70BC38BF70470020AD
:102C6000090D090570471CEB410F10D252EA4306CB
:102C70000BD0BCEB410F05D80C0DAB43661E342EB8
:102C8000B6DD02E0AB438018594170BC704770BCA0
:102C900070470000F0B540F2FF7581EA030C0CF0BC
:102CA000004C15EA11541DBF15EA1357AC42AF4250
:102CB000E5E0BC41C1F31301C3F31303801A99414A
:102CC00043F4801304D2641E4000494180185941E6
:102CD000C90241EA5051B1FBF3F603FB1611A2FB06
:102CE0000675D7EBC020A94102D2761E8018594143
:102CF000C90241EA5051B1FBF3FE03FB1E11A2FBD6
:102D00000E75D7EBC020A94103D2AEF1010E801899
:102D10005941890241EA9051760546EA8E2EB1FB6F
:102D2000F3F603FB1611A2FB0675D7EB8020A94131
:102D300002D2761E80185941C90241EA50514EEA2A
:102D4000060EB1FBF3F603FB1611A2FB0675D7EBDB
:102D5000C020A94102D2761E80185941C90241EA19
:102D60005051B1FBF3F703FB1711A2FB0735D3EB6F
:102D7000C020A94167F100070CBF004247F00107DE
:102D800066F3D5274FEA1E31B80814F5806412DDCA
:102D9000BD0775F1004250EB0E5051EB045111F597
:102DA000801F5CBF41EA0C01F0BD4CF07F6141F037
:102DB000E0410020F0BDBD076D0840EA0E5041F42F
:102DC0008011D4F10104B4F120060ADAC4F120061E
:102DD0000200E04001FA06F3E1401843B240154317
:102DE0000EE0342C13DCC6F1200445EA40056D08E2
:102DF00020FA06F2154321FA06F0A1400D43002106
:102E000075F1004250F1000051EB0C01F0BD0020C3
:102E10005FEA0C01F0BDCFB992185B41B3FA83F7BA
:102E200004BFB2FA82F6BF190B3FB7F120062FBFDD
:102E300002FA06F3BB40C7F1200622FA06F638BFB5
:102E40003343BA401CB1E419641E33E77F4231F0CA
:102E50000041B1FA81F404BFB0FA80F6A4190B3C2A
:102E6000B4F120062FBF00FA06F1A140C4F12006FC
:102E700020FA06F638BF3143A0403C1B1AE7AC42AB
:102E80001ABF05EA1357AF4212E050EA41061CBFD1
:102E900052EA4306BFE750EA4107304661461CBF8D
:102EA00041EA0551F0BD52EA430C08BFC143F0BDF1
:102EB00000204FF4001616EB410F98BF16EB430F9E
:102EC00008BF16EB410F24BFC14305E016EB430FCB
:102ED0000CBF61464CEA0551F0BD0000400D491899
:102EE00040EA81200CD2490DA1F58061491C40F0D7
:102EF000004005DBD1F11F0154BFC840C017704727
:102F000000207047014648B1B0FA80F18840C91CE2
:102F1000C1F58461090501EBD0214005704700002F
:102F2000B0B581EA030C0CF0004C40F2FF7515EAD5
:102F300011541DBF15EA1357AC42AF4239E0E419F2
:102F400023EA455343F48013C90241F0004141EAAA
:102F5000505EC7021100A7FB020200284FF00000DC
:102F6000EEFB01204FF00001E3FB072118BF42F008
:102F70000102401800214941E3FB0E01A4F58064E1
:102F80000F0302D252004041494154F101046CDD6B
:102F9000470872F1004250F1000051EB0451A1F5D5
:102FA00080115CBF41EA0C01B0BD4CEA0551002024
:102FB000B0BD05EA1357AC4214BFAF4241E050EA3E
:102FC000410E1CBF52EA430E02E061460020B0BD34
:102FD00024423C441BD15FEA070EF6D0090302BF2E
:102FE00001460020AEF1140EB1FA81F7AEEB0704F2
:102FF00001FA07FE0C37C7F1200100FA07F7C840B5
:103000004EEA000E23EA455343F48013A2E733F05F
:103010000043B3FA83F704BFB2FA82FE77440B3F52
:10302000E41BB7F1200E2FBF02FA0EF3BB40C7F12D
:10303000200E22FA0EFE38BF43EA0E03BA40641C8B
:1030400082E750EA410E14BF52EA430E6FF00001CE
:103050004FF4001717EB430F8ABF194617EB410FC8
:10306000B5E74CEA05510020B0BDD4F10104B4F13C
:1030700020070FDAC4F12007520828BF42F00102EE
:1030800010FA07F501FA07F7E1BF2A43E040384399
:10309000E1400FE0352C98DCC7F1200452EA4002F1
:1030A00020FA07F218BF42F0010231FA07F0A140FE
:1030B0000A43002172F1004250F1000051EB0C0173
:1030C000B0BD80B5FFF734FB006C02BDBBBBE1B106
:1030D000B2F5803F80F07E80022A1ED98C46B1FB7B
:1030E000F2F102FB11C31B0443EA1043B3FBF2FCF1
:1030F00002FB1C3380B240EA0343B3FBF2F002FB55
:10310000103240EA0C4000237047022A05D9844659
:10311000B0FBF2F002FB10C270474AB105D100F0DB
:10312000010249085FEA300070470022002370471F
:1031300000F0A2B90B00020000210020704790426D
:1031400071EB030CF6D3B3F5803F2FD2F0B5B3FA91
:1031500083F7B1FA81F4A7F10F0E3D1B5340CEF176
:10316000200602FA0EF2F3415340B5F10F0746D89C
:103170000F3C2C444140C4F12006A040F1414140A5
:10318000B1FBF3F603FB1611A2FB0645001BA94198
:1031900002D2761E8018594180EA010221FA0EF30C
:1031A00062FA0EF200215A403046F0BD30B4B1FB55
:1031B000F3FC03FB1C11A2FB0C45001BA94103D22D
:1031C000ACF1010C8018594130BC02460B466046F8
:1031D00000217047B2F1807F65D3F0B5B2FA82F773
:1031E000B1FA81F4C7F10F063D1B22FA06F307F18D
:1031F000110EF24120355A40B5F10F07B8D94140C0
:10320000C4F12006A040F1414140B1FBF3FC03FBB7
:103210001C11A2FB0C45001BA94103D2BCF1010CFF
:10322000801859410F2F12D30F3FC90341EA504173
:10323000B1FBF3F603FB1611A2FB0645D4EBC0303D
:10324000A94102D2761E8018594146EACC3C07B308
:103250004140C7F12006B840F1414140B1FBF3F6CF
:1032600003FB1611A2FB0645001BA94102D2761EE4
:103270008018594180EA010221FA0EF3C7F12004B7
:1032800062FA0EF20CFA07F05A402CFA04F13043BD
:10329000F0BD80EA010221FA0EF3002162FA0EF27B
:1032A00060465A40F0BD8C46B1FBF2F102FB11C3FF
:1032B0001B0243EA1063B3FBF2FC02FB1C331B024C
:1032C0004CEA002043EA1063B3FBF2FC02FB1C3320
:1032D0001B024CEA002043EA1063B3FBF2FC02FB42
:1032E0001C331B024CEA002043EA1063B3FBF2FCE0
:1032F00002FB1C324CEA00200023704770B44FF0F0
:10330000004591EA030F7FF55BAC6B40841A71EBCB
:10331000030604D26E40001BB141121973414FF4F1
:10332000001C1CEB410F34BF7CEB430683E00C0D0B
:10333000A4EB1356362E00F37C80012E45EAC323FE
:1033400041DC43EA525312BFD20292025B082405C9
:1033500045EAC12141EA5051D2EBC020994125D420
:1033600007D1B0FA80F610FA06F162D000202036BC
:1033700008E0B1FA81F6B140C6F1200220FA02F26B
:103380001143B0404FEAF474B4EB465434F00106F4
:103390004FEA74040AD8D6F50016760D04F00044FE
:1033A000F04061FA06F25040F1404840C00A40EA5D
:1033B000415021F0004128BF5FEA500550F1000064
:1033C00044EBD12135E0DB0A45EAC121C90AB6F157
:1033D00020050EDD42EA0242120CC5F1200603FA76
:1033E00006F6EB4042EA06056D42984161F10001A4
:1033F0000DE062FA06F5F240554063FA06FC82EAF7
:103400000C02F3405A406D42904161EB030111F40C
:10341000801F05D1641E620502D06D004041494104
:1034200021F48011430875F1004350F1000041EB95
:10343000045170BC70471CEB410F15D223F00043C0
:1034400052EA43060BD04FEA4C0CBCEB410F04D8B8
:103450000C0D661E342EB7DDEBE7801A994150EA59
:10346000410608BF0021E4E708BF1CEB430F28BF5B
:103470006FF00001DDE700007047000010B58CB070
:10348000040006A800F020FB14E0012084F8A3004B
:1034900094F8A3000BE0200000F04EF9606800797A
:1034A0000028F2D0002084F8A30094F8A3000120A3
:1034B00000F0E6FB206800F050FF0028EED020006E
:1034C00000F012F80128E6DADFF8C815684600F0C7
:1034D000B6FF0100206800F01AFF684600F0C1FF47
:1034E000022084F8A300D9E738B586B00400002094
:1034F0002168684600F034FF6946200000F0B5F806
:103500000500684600F0ADFF012D05DA022084F8C1
:10351000A3005FF0FF30A6E0002114F1080000F0E6
:1035200088FADFF8741500F0A5FF002810D00020FD
:1035300084F8A000012114F1080000F07AFA7BA1C0
:1035400000F098FF002836D0002084F8A1005BE04E
:10355000002114F1080000F06CFADFF8401500F0CB
:1035600089FF002803D0012084F8A000E2E70021B1
:1035700014F1080000F05DFADFF8241500F07AFF7E
:10358000002803D0022084F8A000D3E7002114F122
:10359000080000F04EFADFF80C1500F06BFF002871
:1035A00003D0032084F8A000C4E7022084F8A3001D
:1035B0005FF0FF3057E0012114F1080000F039FA04
:1035C0005BA100F057FF002803D0012084F8A10080
:1035D0001AE0012114F1080000F02BFA55A100F0C7
:1035E00049FF002803D0022084F8A1000CE001214B
:1035F00014F1080000F01DFAC1A100F03BFF002803
:1036000002D0032084F8A100022114F1080000F088
:1036100010FADFF8941400F02DFF002803D00020EA
:1036200084F8A2001AE0022114F1080000F001FA67
:10363000B4A100F01FFF002803D0012084F8A200ED
:103640000CE0022114F1080000F0F3F9AEA100F043
:1036500011FF002802D0022084F8A20014F1080013
:1036600000F0D3F9012007B030BD2DE9F84392B046
:1036700004000D00A5A106A800F0E1FE0026280028
:1036800000F002FF070006A800F0FEFE8046684634
:1036900000F01AFA5FF0000924E0320006A92800C1
:1036A00000F0F7FE03009B1B32002900684600F083
:1036B00002FF01000CA800F03CFF010014F108001B
:1036C00000F08CF90CA800F0CCFE684600F0DCFE9F
:1036D000002815D0684600F0D7FE18EB00008619C8
:1036E00019F10109BE4214D2B9F1060FD5DB6846C3
:1036F00000F0B7FE06A800F0B4FE5FF0FF3012E065
:10370000684600F0AEFE06A800F0ABFE5FF0FF30AA
:1037100009E0280000F02AFF684600F0A2FE06A893
:1037200000F09FFE012013B0BDE8F0836368300015
:10373000636831006368320030B5CFB0040094F89C
:10374000A000002806D0022833D018D3032800F0A8
:10375000A480D2E0002084F8A300606800F0E1FFBC
:10376000042084F8A000C2A130A800F068FE010087
:10377000206800F0CCFD30A800F073FEBDE0012011
:1037800084F8A30094F8A110606800F086FF6068D8
:1037900000F0AFFF042084F8A000B5A12AA800F033
:1037A0004EFE0100206800F0B2FD2AA800F059FE8C
:1037B000A3E0684600F088F96421002236AD2800B5
:1037C00000F0F4FF94F8A200002803D0022840D0B3
:1037D00022D35BE060686168096800EB4100808883
:1037E00040F6FF7190FBF1F0FFF7D0F902000B00FB
:1037F000AE4936A801F00EF836A9684601F02AF85D
:10380000694624A800F095FE0100206800F07FFDC5
:1038100024A800F026FE39E0200000F079F800220C
:10382000A34BFFF737FA02000B00A04936A800F0BF
:10383000F1FF36A9684601F00DF869461EA800F0B0
:1038400078FE0100206800F062FD1EA800F009FE6D
:103850001CE0200000F08EF80022954BFFF71AFACA
:1038600002000B00914936A800F0D4FF36A9684643
:1038700000F0F0FF694618A800F05BFE0100206828
:1038800000F045FD18A800F0ECFDFFE7042084F8E7
:10389000A000684600F0E5FD2FE094F8A3000028A2
:1038A00003D0022819D00CD323E0824912A800F0DB
:1038B000C6FD0100206800F02AFD12A800F0D1FD2D
:1038C00017E07D490CA800F0BAFD0100206800F067
:1038D0001EFD0CA800F0C5FD0BE0784906A800F01D
:1038E000AEFD0100206800F012FD06A800F0B9FD51
:1038F000FFE7042084F8A000FFE74FB030BD0000D0
:1039000063683300726D7300617667002000000009
:103910002DE9F843060000240025002718E0706810
:1039200000EB4700C088FFF7EDFA804689467068D3
:1039300000EB4700C088FFF7E5FA42464B46FFF729
:10394000EFFA22002B00FFF7D9FC04000D007F1CCA
:10395000706800688742E2D370680068FFF7D2FAA7
:1039600002000B0020002900FFF794F900F076FF19
:10397000BDE8F483F8B506000024002500270CE01C
:10398000706800EB4700C088FFF7BCFA22002B00EC
:10399000FFF7B4FC04000D007F1C706800688742CC
:1039A000EED370680068FFF7ADFA02000B0020004C
:1039B0002900FFF76FF9F4BD10B5040021606260C3
:1039C00014F1080000F03DF8200010BD10B504000F
:1039D00014F1080000F04EF8200010BD10B50400EE
:1039E000D4F89000052801D300200DE0D4F89020F1
:1039F0001820424304EB020000F0A9FFD4F8900025
:103A0000401CC4F89000012010BD38B5040000250A
:103A100006E0182000FB05F0204400F0A7FD6D1C17
:103A2000052DF6DB0020C4F890000020C4F89400B7
:103A300031BD062903D218225143084400E07830F2
:103A4000704710B50400052318221D49200000F01E
:103A500093FF0FA114F1780000F0F1FC0020C4F8EE
:103A600090000020C4F89400200010BD0000000069
:103A70006F6B000010B5040014F1780000F0F1FC49
:103A8000052318220F49200000F08AFF200010BDF6
:103A900000000000545D0008B05D0008B85D00083B
:103AA000C05D0008C85D0008D05D0008905D00089A
:103AB00000FEAF40985D0008A05D0008A85D00080A
:103AC000C93A0008634400081CB504006946200098
:103AD00000F07EFF00220021200000F07DFF20008A
:103AE00016BD00002DE9F84384B007008846160093
:103AF0009946300080B2800000F0ACFF0500002D38
:103B00000BD04C2000F0A6FF0400002C01D0256350
:103B100004E0280000F0F2FF00E00024002C12D0A6
:103B20000020039002940D9801900C9800904B4651
:103B3000B6B232004146380000F00AF8200000F02A
:103B400052F8012001E05FF0FF3005B0BDE8F083DE
:103B50002DE9F84305001E000A9F386B00EB820038
:103B6000B0F104085FEAD8085FEAC808002910D05D
:103B7000002200E0521C102A07D2885C07EB0203E7
:103B800083F83400885C0028F4D1002087F84300D3
:103B900002E0002087F83400DDF82090B9F1050F2D
:103BA00001D35FF00409099CC7F82C90381D00F080
:103BB000EEFF17F1180000F0EAFF3F61D9F10509A7
:103BC000C7F818907F6200207864002087F84800CA
:103BD00032002900404601F017F83860002C00D070
:103BE0002760BDE8F18338B5040001F038F8DFF84C
:103BF00008140868401C0860DFF800542868002892
:103C000006D12C60086801280DD100F094F90AE073
:103C1000DFF8EC030068002805D1E06A2968C96A6A
:103C2000884200D32C60DFF8DC030168491C016086
:103C3000DFF8D4130A680123E06A83401A430A605C
:103C4000211DDFF8C823E36A1420434302EB03007D
:103C500000F0A0FF01F00FF8DFF8A40300680028CF
:103C60000DD02868C06AE16A884208D25FF08050AF
:103C7000DFF8A8130860BFF34F8FBFF36F8F31BD1C
:103C800010B504000020002C07D000F039F8002106
:103C9000200000F0C9F900F039F8002808D15FF0E1
:103CA0008050DFF87C130860BFF34F8FBFF36F8F36
:103CB00010BDE0B5DFF8EC03019000200090002378
:103CC0008022DFF8E4130FF24D20FFF70BFF0128ED
:103CD00015D1BF2080F31188BFF34F8FBFF36F8FD3
:103CE0005FF0FF30DFF8C41308600120DFF8101325
:103CF00008600020DFF8B813086000F09DFF07BDE2
:103D0000DFF89C030168491C0160704770B500240E
:103D1000002500F0A4FFDFF888030168491E016058
:103D20000068002855D1DFF8D0020068002826D1AD
:103D30004FE0C868C46814F1180000F052FF201D5D
:103D400000F04FFFDFF8C0120A680123E06A8340E9
:103D50001A430A60211DDFF8B422E36A14204343AA
:103D600002EB030000F016FFE06ADFF8901209682A
:103D7000C96A884203D30120DFF838130860DFF8EE
:103D80001C1308680028D4D1002C01D000F020F9C1
:103D9000DFF824633468002C0CD000F01EF80028F3
:103DA00003D00120DFF80C130860641E002CF4D14E
:103DB00000203060DFF8FC020068002809D00125EF
:103DC0005FF08050DFF858120860BFF34F8FBFF3E9
:103DD0006F8F00F050FF280070BDF8B50025DFF8A8
:103DE000C0020068002863D1DFF82C020468641C5C
:103DF0000460002C0ED1DFF8C4020168DFF8C02295
:103E0000136803601160DFF8BC020168491C01609F
:103E100000F0DEF8DFF894623068844231D323E0AA
:103E2000381D00F0DEFEB86A002803D017F1180034
:103E300000F0D7FEDFF8D0110A680123F86A83404A
:103E40001A430A60391DDFF8C421FB6A142043437A
:103E500002EB030000F09EFEF86ADFF8A01109688B
:103E6000C96A884200D30125DFF85012086800684B
:103E7000002819D00868C068C76878688442CFD223
:103E80003060DFF878010068DFF88011C26A142022
:103E900042438858022800D30125DFF81802006841
:103EA00000280AD0012508E05FF0FF303060E8E725
:103EB000DFF804020168491C01602800F2BDDFF848
:103EC000E0010068002804D00120DFF8E811086054
:103ED0001FE00020DFF8DC1108604B480068B0FAF2
:103EE00080F1D1F11F01DFF824211420414302EBBE
:103EF0000100416849684160416810F1080291423F
:103F000002D14168496841604068C068DFF88811A3
:103F10000860704780B500F037F83C480068022818
:103F2000F9D35FF08050DFF8F8100860BFF34F8FCF
:103F3000BFF36F8FEFE738B5002407E03348142153
:103F400001FB04F1084400F013FE641C052CF5D3BA
:103F5000DFF87441200000F00BFEDFF870512800FC
:103F600000F006FEDFF8340100F002FE284800F001
:103F7000FFFDDFF8B00000F0FBFDDFF8400104605A
:103F8000DFF83C01056031BD38B513E000F067FE95
:103F90001F48C068C468201D00F023FE1648016851
:103FA000491E01602868401E286000F064FE200061
:103FB00000F005F8174D28680028E7D131BD10B58D
:103FC0000400206B00F09AFD200000F097FD10BD6A
:103FD000DFF8E81008680068002805D15FF0FF30BE
:103FE000DFF8C810086006E00868C068C06840686C
:103FF000DFF8B810086070474449002034490020B9
:1040000050490020604900204C49002040480020D1
:10401000F8480020404900204849002004ED00E015
:1040200004ED00E00C490020F8B505000C00204824
:104030000668194F3868001D00F0D3FD002807D12D
:10404000386823490A680123C06A83409A430A609A
:1040500015F1010F07D1002C05D03868011D1D484E
:1040600000F098FD16E0AD1938684560B54206D2FB
:104070003868011D1248006800F098FD0AE03868B1
:10408000011D0E48006800F091FD084801688D424E
:1040900000D20560F1BD000034490020E448002052
:1040A0006C49002068490020D85D00086449002060
:1040B0004849002058490020544900203849002030
:1040C0003C4900205C490020BC480020D04800202A
:1040D0004C4900200C490020010049B2002908D4B5
:1040E000012210F01F018A40BC4940B2400941F84A
:1040F000202070471CB50400B4F84800012803D004
:10410000022800F08E808EE0002000900020B4484D
:10411000016851F480410160016811F4804100910F
:10412000016851F004010160006810F00400009083
:10413000AC48016831F4346151F496610160252086
:10414000FFF7CAFFA848016851F001010160A748C4
:10415000016831F4804151F010010160016831F4CF
:1041600040510160016831F020010160016831F0C7
:1041700040010160016851F080010160016831F483
:1041800040710160016831F44061016001684908D3
:104190004900016096494FF480520A604FF4005282
:1041A0000A604FF400420A6092490A6852F08002A5
:1041B0000A60026852F002020260026852F00802CD
:1041C00002608D488D4A106014F130008C4A1060F6
:1041D0008C480268920409D4026832F4B05252F456
:1041E000967202600A6852F001020A60864A1368F9
:1041F00033F4904313600A6832F02A020A60E26CDA
:10420000824911EB5201E26CB1FBF2F1804A11607C
:10421000016851F400510160200000F05AF80120BB
:1042200002E0002000E0002016BD38B504000D00BB
:1042300094F86900012801D1012000E00020290044
:10424000C9B20D2901D1012100E000212A00D2B21A
:10425000002A01D1012200E000222B00DBB20A2B50
:1042600001D1012300E000231143194391F0010122
:10427000C0B2084206D014F1500000F077F90020D7
:1042800084F869002800C0B20D2801D1012000E0A7
:1042900000202900C9B2002901D1012100E000213C
:1042A0002A00D2B20A2A01D1012200E00022C0B2C3
:1042B000C9B20843D2B21043002803D0012084F8C9
:1042C000690005E02900C9B214F1500000F00EFDAC
:1042D00031BD70B590F86A10002916D0002180F821
:1042E0006A10424C2168490849002160494D2E68F6
:1042F000360C3604303000F006FD06432E60206890
:1043000050F001002060012000E0002070BD38B5B1
:1043100004000D0014F1180114F1300000F0F8FC55
:10432000290014F1300000F0F3FC28A114F1300052
:1043300000F0F5FC210014F1300000F0E9FC200051
:10434000FFF7C7FF32BD10B5040014F1300000F0D4
:104350000DF9012084F86A0010BD90F869007047DB
:1043600010B50C00002184F8691014F1500100F020
:10437000E0F814F1500000F0F9F810BDF8B50400B1
:104380000D00160012A73900200000F058F811A106
:1043900014F1180000F053F8390014F1300000F067
:1043A0004EF8A4F84850E6640BA114F1500000F058
:1043B00046F8002084F86800002084F86900012095
:1043C00084F86A002000F2BD000000000D0A000021
:1043D0003E3E3A003C3C3A000000000000E100E0B4
:1043E000181002400408014014100240440002402A
:1043F0000400024014380140043801404C000240DF
:10440000500002400C3801401038014000A24A041C
:10441000083801404800024010B5040014F1500073
:1044200000F01FF814F1300000F01BF814F1180030
:1044300000F017F8200000F014F8200010BD38B587
:1044400004000D006946200000F0C2FA002200219D
:10445000200000F0C1FA2900200000F06CFC2000D0
:1044600032BD10B5040000220121200000F0B4FA92
:10447000200010BD80B500F06AFC002801D10120A9
:1044800000E00020C0B202BD80B500F072FC006800
:1044900002BDF8B504000D0016002800FFF7F4FF78
:1044A0000700280000F06AFC3B00320001002000F9
:1044B00000F06AFCF2BD2DE9F04104000D00160089
:1044C0001F002800FFF7E0FFB04201D2FDF77EF8A1
:1044D0002800FFF7D9FF8046B8EB0608474500D211
:1044E000B846AC420BD118EB06084146200000F05C
:1044F00095FC32000021200000F0A1FC16E0002213
:104500004146200000F0D1FC00280FD0280000F028
:1045100035FC0500200000F005FD424605EB0601D4
:1045200000F006FD4146200000F00BFD2000BDE834
:10453000F0817CB504000D00280000F016FD32006B
:104540000100684600F015FD6946200000F040FAC1
:1045500000220021200000F03FFA5FF0FF3300222C
:1045600029002000FFF7A7FF200076BD80B50021BD
:1045700000F0E7FC01BD000010B4744A116851F06E
:1045800004011160724B1C6872490C401C601C686D
:1045900071490C401C6071490B6853F400430B6077
:1045A000116851F4007111606D4A116851F00101F8
:1045B0001160116851F008011160002100E0491CF0
:1045C0000229FCDB116851F00401116011684907F0
:1045D000FCD51168490849001160624B1C6840F223
:1045E00049210C431C60116851F0020111605E49C1
:1045F0000B6853F480730B60116841F4F01151F4AF
:104600008071116059490B6833F470030B6058498D
:104610000B685B095B010B60116851F001011160CF
:10462000544A136854490B401360116851F44051C7
:104630001160116831F020011160116831F0400102
:104640001160116851F080011160116831F400713E
:1046500051F480711160116831F4006151F480618E
:1046600011601168490849001160444901230B6039
:1046700002230B6008230B60116851F002011160E6
:10468000116851F0080111603D493E4A1160801DDA
:104690003D490860012010BC7047002905D002295F
:1046A00011D008D3032916D01DE03148016849090B
:1046B000490101601CE02E4801684909490151F097
:1046C0000101016014E02A4801684909490151F0DB
:1046D000020101600CE0264801684909490151F0D6
:1046E0000301016004E022480168490949010160B1
:1046F0007047002101711F490A68520852000A6080
:10470000224A13681B0C1B040068034313600868EB
:1047100050F0010008601248016851F48001016006
:1047200070470121017113490A68520852000A605A
:1047300016490A68120C1204006802430A6008480D
:10474000016831F4800101607047000018100240D8
:1047500000080140CCCCFFFF3333FFFF04100240C0
:104760000824014010240140042401402C2401406D
:104770003424014008000240EFBFFFFF0400024064
:104780004C24014010000240140002400C00024082
:1047900010B504000A20206001202071A01DC8214E
:1047A00000F0F2FB200010BD7047000062F30F2202
:1047B00062F31F42401810F0030308D0C91A1FD338
:1047C000DB0748BF00F8012D28BF20F8022D130099
:1047D00030B414461546103928BF20E93C00FAD8F9
:1047E000490728BF20E90C0048BF40F8042D890084
:1047F00028BF20F8022D48BF00F8012D30BC7047BB
:10480000C91818BF00F8012DCB0728BF00F8012DEB
:10481000704700000CB430B583B00A4606A9029177
:10482000044600250194009502AB01A9084878448C
:104830001E30FCF70BFF019A157000284EBF04468E
:104840000198041B204603B030BC5DF80CFB00BF90
:1048500073DFFFFF80B500F06EFA02BD40F2FF7C0F
:104860000B0D4DD0634566D230B421EA035141F4BB
:10487000801103F2FD3C5FEA5C0C01D30018494152
:10488000890041EA907180004FF440140023E20255
:10489000D50AB1F5100107D46D081DD2091B6419A2
:1048A00000184941491BF7D56D080AD20919641B44
:1048B00000184941491BEFD56D08F7D301E05208B4
:1048C00017D0C01861419B1AAC4100184941801AA9
:1048D000A941F4D452080AD0C01AA1419B186C41D6
:1048E00000184941801AA941E9D45208F4D15B1C4F
:1048F0006C4161084FEA330001EB0C5130BC70474A
:1049000050EA0103FBD030B4B1FA81F311B9B0FA27
:1049100080F41B190B3BB3F120042FBF00FA04F104
:104920009940C3F1200420FA04F438BF2143984091
:10493000D3F101039DE7634514BF50EA410CDEE764
:1049400011F5801FDBD8D943AFF30080704770B5F5
:1049500004000D00AC420DD0280000F006FB06005C
:10496000200000F014FB310000F015FB29002000AE
:1049700000F01BFB200070BD2DE9F04106460F46FC
:104980003546380018BF002D90461C4605D024B18E
:104990003046B847641E4644FAD12846BDE8F08147
:1049A0002DE9F0411646044673430D46E71876425A
:1049B000A046B84503D237443846A847F9E7A4F1E2
:1049C0000800BDE8F0810B460146184600F000BB28
:1049D00080B500F041FB02BDF8B505001400C9B276
:1049E00000292CD0280000F043FB0068102826D3B3
:1049F000280000F042FB0668280000F03EFB07009C
:104A0000280000F0C4FA390000F03BFB002C0AD06B
:104A1000300000F03AFB0700280000F02EFB2200D7
:104A2000390000F085FA280000F022FB070028007A
:104A300000F0ADFA3A68521C310000F02AFB280061
:104A400000F016FB0F2101602100280000F079FA28
:104A5000F1BD000070B504000025FFF751F93E4E8E
:104A60003068002803D100F067F801203060002C86
:104A70000AD03A480088041914F0070F04D014F142
:104A8000080014F00704041B002C33D044F2F83063
:104A900084422FD2324A1300116801E00B000968EA
:104AA0004868A04202D208680028F7D12D48814208
:104AB00020D02A481D68068835440E681E6000888C
:104AC00040004B681B1B98420FD201EB04004B685F
:104AD0001B1B43604C60436800E012681468646804
:104AE0009C42FAD31368036010601F4A1368486839
:104AF0001B1A1360FFF70AF9280070BD10B50100FA
:104B0000002818D015480088404201EB0004FFF748
:104B1000F7F86168124800E00068026852688A424B
:104B2000FAD30168216004600F490A68606882183E
:104B30000A60FFF7EBF810BD0C48C008C000084938
:104B4000086000224A60074944F2F8324A600023B4
:104B50000B60426001607047304900204228000825
:104B6000204900202849002000000020900000205B
:104B700010F1080141605FF0FF31816010F1080120
:104B8000C16010F10801016100210160704700213E
:104B90000161704742684A6093688B60936859600E
:104BA000916008610168491C0160704710B40B688E
:104BB00013F1010F01D1026907E010F1080200E0D2
:104BC000526854682468A342FAD253684B604B6819
:104BD00099608A60516008610168491C016010BCDD
:104BE00070470169826843689A60426883685A60C6
:104BF0004A68824201D182684A60002202610868E4
:104C0000401E086008687047001F5FF080730360F3
:104C1000001F490849000160001F0FF20D010160EB
:104C20001438026020387047BF2080F31188BFF32A
:104C30004F8FBFF36F8FFEE780B51F48016851F4B7
:104C40007F010160016851F07F41016000F03AF896
:104C500000201A49086000F054FA002002BDBF206D
:104C600080F31188BFF34F8FBFF36F8F1348016834
:104C7000491C0160704711480168491E01600068C5
:104C8000002802D1002080F31188704780B5BF2032
:104C900080F31188BFF34F8FBFF36F8FFFF79DF83D
:104CA000002803D05FF0805005490860002080F3A1
:104CB000118801BD0000000020ED00E0040000208C
:104CC00004ED00E00548002101600021044A116064
:104CD0000449054A116007210160704710E000E0B7
:104CE00018E000E03F19010014E000E038B50400CE
:104CF0000D00200000F016FA2A00D2B201002000B8
:104D000000F026FA31BD80B500F033F8006802BD2E
:104D100080B55FF0FF33002200F038FA02BD38B5ED
:104D200004000D00280000F079FA0200290020009C
:104D300000F07DFA32BD38B504000D00280000F007
:104D40006DFA02002900200000F0B4FA32BD7CB5F3
:104D500004000D00280000F061FA0600200000F0B9
:104D600008F800962B0002680021200000F0CBFA22
:104D700076BD80B500F0FEFA103002BD80B500F0BF
:104D8000F9FA00F0FBFA02BD2DE9F84305000E0028
:104D900017001C00002C07D12800FFF7EAFF00686D
:104DA000B84201D3380037E02800FFF7E2FF00687F
:104DB00087422FD22800FFF7DCFFD0F80080B8EB45
:104DC0000708A04526D3B8EB040818F1010828000D
:104DD000FFF7D4FF00EB070907E0B8EB070819EB72
:104DE0000808B8F1010817F10109320041464846A8
:104DF00000F0CDFA070000280CD022003100380066
:104E000000F0D0FA0028E8D12800FFF7B7FF3F1ADA
:104E1000380001E05FF0FF30BDE8F28338B50400F0
:104E20000D00200000F0C6FA0068A84201D2FCF78D
:104E3000CDFB2900200000F084F8200032BD2DE9D0
:104E4000F04105000E001400280000F0B3FA0068DD
:104E5000B04201D2FCF7BAFB280000F0ABFA0068C0
:104E6000801B844204D33100280000F06AF819E066
:104E7000002C17D0280000F055F800EB060728009A
:104E800000F098FAD0F80080B8EB0408B8EB0606FA
:104E9000320007EB0401380000F091FA4146280087
:104EA00000F04FF82800BDE8F08170B506000C0056
:104EB0001500300000F08CFAA04201D2FCF786FB0E
:104EC000300000F0D5F80068A04208D2300000F0B1
:104ED00071FA02682100300000F086FA1BE0EDB2A2
:104EE000002D12D0102C10D2300000F063FA0068B0
:104EF000844201D2220003E0300000F05BFA026835
:104F000001213000FFF768FD05E0002C03D10021EE
:104F1000300000F016F8002C01D0012000E0002045
:104F2000C0B270BD80B500F0CAFA00F0CCFA02BD84
:104F300010B50400002A02D02000FDF7AFFC2000CD
:104F400010BD7CB504000D0000208DF8000020008D
:104F5000FFF7E8FF0600200000F02CFA0560694624
:104F60000068304400F0B8FA73BD80B500F0B7FABD
:104F700002BD1CB50400684600F0B2FA6946200084
:104F800000F0AFFA13BD00000022FFF713BC80B59C
:104F900000F0A8FA02BD80B500F0A5FA002801D102
:104FA000012000E00020C0B202BD80B55FF0FF33F9
:104FB0000022FFF780FA02BD38B504460D46AC4228
:104FC00005D0206820188047241DAC42F9D131BD9E
:104FD000F8B505460E461746AFF300801A49086833
:104FE00000B91A481A4A90422EBF002404460C30D9
:104FF0000860AFF300800CB90120F2BD2660656047
:10500000A7600020F2BD80B50F49124800F001F8FA
:1050100001BDF8B50E46054637683C0011D1F1BD1B
:10502000884709E00C3C616808000AD0206800222B
:1050300000286260F4D08847306887421CBF07466A
:105040003C46AC42EED1F1BD7049002084490020BD
:10505000284B00208449002010B504000A000348B2
:105060000178200000F043FA200010BD122A000849
:1050700080B500F024FA143002BD80B500F01FFAAC
:1050800002BD80B500F041FA01BD80B500F041FAE3
:1050900002BD80B500F03EFA01BD0000EFF30980CB
:1050A000BFF36F8F1D4B1A6820E9F00F106008B531
:1050B0004FF0BF0080F31188BFF34F8FBFF36F8FA6
:1050C000FEF7FDFE4FF0000080F31188BDE80840B8
:1050D00019680868B0E8F00F80F30988BFF36F8F94
:1050E00070470E4B19680868B0E8F00F80F3098824
:1050F000BFF36F8F4FF0000080F311884EF00D0E5C
:10510000704707480068006880F3088862B661B697
:10511000BFF34F8FBFF36F8F00DF000034490020D3
:1051200008ED00E07CB50400200000F0C8F905009F
:10513000200000F0F5F90600200000F03BF92A00FD
:10514000006806EB0001684600F0F0F9006876BDE3
:1051500073B582B004001500200000F0EEF9009055
:10516000694603A800F0F9F906002B00DBB2012222
:105170003100200000F0FCF9200000F0DEF9019081
:10518000310001A800F03FFA04B070BD2DE9F843EA
:1051900005000F0016001C003800FFF775F9B0423B
:1051A00001D2FCF713FA3800FFF76EF9801BA0421A
:1051B00000D20400280000F0FDF85FF0FF31006825
:1051C000091A8C4201D3FCF701FA002C23D02800E5
:1051D00000F0F0F8D0F8008014EB080800224146F7
:1051E0002800FFF762FE002815D03800FFF7C6FD43
:1051F00007002800FFF796FE8146280000F0DAF845
:10520000220007EB060100684844FFF791FE414683
:105210002800FFF796FE2800BDE8F28380B50178EC
:10522000002901D1002001E0FDF7F0FA02BD2DE9CF
:10523000F04105000E0014003100280000F0EBF9E9
:1052400000280AD02800FFF76DFE2300361A32002E
:1052500029002800FFF79AFF2AE0280000F0AAF8AA
:105260005FF0FF310068091A8C4201D3FCF7AEF9F8
:10527000002C1CD0280000F09DF80768E7190022D8
:1052800039002800FFF711FE002810D02800FFF792
:1052900049FE8046280000F08DF8220031000068A9
:1052A0004044FFF745FE39002800FFF74AFE28007A
:1052B000BDE8F08170B504000D0016002900200043
:1052C00000F0A9F900280AD02000FFF72BFE3300D8
:1052D0002D1A2A0021002000FFF7EDF812E000222D
:1052E00031002000FFF7E1FD00280AD02000FFF781
:1052F00019FE32002900FFF71BFE31002000FFF7E6
:1053000020FE200070BD2DE9F84307000C001600B8
:105310001D003800FFF72DFD0068A04201D2FCF708
:1053200055F93800FFF725FD0068001BB04204D294
:105330003800FFF71EFD0668361BDDF82080464565
:1053400001D2B14600E0C1463800FFF717FD4A46DA
:105350002900204400F026F8002809D1464502D251
:105360005FF0FF3004E0464501D1002000E001205D
:10537000BDE8F28380B500F067F902BD80B54169F0
:10538000102903D30068FFF780FEFFE702BD80B558
:10539000002901D1002004E013780A001900FDF76C
:1053A00051FA02BD80B5002A01D1002001E000F0D1
:1053B0004DF902BD80B500F082F8103002BD10B585
:1053C0000400002A02D0200000F074F9200010BD73
:1053D00010B5FFF7CAFD210000F0B7F9022801D28D
:1053E000012000E0401E10BD2DE9FC4105000F002A
:1053F000140057F00F062800FFF7EAFFB04201D271
:105400003E002AE02800FFF733FE0321B6FBF1F14E
:105410000068B1EB500F20D22800FFF7D9FF06003B
:105420002800FFF725FE07002800FFF721FE396856
:10543000B6EB5106006886420BD32800FFF718FE32
:1054400006002800FFF714FE3668006816EB5006C9
:1054500003E02800FFF7BCFF06002800FFF797FDD8
:10546000711C00F076F90090002C0AD02800FFF79C
:1054700059FD07000098FFF708FE22003900FFF7EA
:1054800057FD002201212800FFF7A6FA684600F028
:1054900064F907002800FFF7F0FD80462800FFF7B9
:1054A00076FD3A00414600F059F92800FFF7E0FD8B
:1054B000066021002800FFF744FDBDE8F38180B5B8
:1054C00000F058F902BD80B54169102903D3006886
:1054D000FFF7DBFDFFE702BD0978017070477047F9
:1054E00070477047704780B500F045F902BD10B5B0
:1054F0000400100000F041F90100200000F03EF926
:10550000200000F03FF9200010BD80B500F03FF909
:1055100001BD704780B50800110000F039F901BDE8
:1055200080B5FFF7CCFF00F037F902BD10B50400DD
:10553000200000F03AF9200010BD38B5040020002A
:10554000FFF7BDFF05002000FFF7EAFF2A0001007A
:105550006846FFF7EBFF006832BD38B504000D0068
:105560002900200000F025F920682968401A32BD82
:105570002DE9F04705000E0014001F002800FFF77A
:1055800019FF0068B04201D2FCF720F82800FFF7AD
:1055900011FF5FF0FF310068091A8C4201D3FCF75C
:1055A00015F8002C2CD02800FFF704FFD0F800805D
:1055B00014EB0808002241462800FFF776FC00287B
:1055C0001ED02800FFF7F6FE81462800FFF7AAFC50
:1055D00082462800FFF7A6FCD9F80020921B0AEBB0
:1055E000060130442044FFF7EAFE3B00DBB2220014
:1055F0003100280000F0DEF841462800FFF7A1FC4A
:105600002800BDE8F08780B500680090684600F08B
:10561000E6F8006802BD70B505000C00002C0FD044
:105620002800FFF77FFC84420AD32800FFF77AFCAA
:1056300006002800FFF7BEFE00683044844201D314
:10564000002000E0012070BD704700000300002032
:1056500013F0030F09D0521E22BF13F8010B11F8EB
:1056600001CBB0EB0C00F3D0704711F0030F14D155
:10567000121F22BF53F8040B51F804CB6045F7D03A
:10568000121D0AD200BA9CFA8CFCB0EB0C0038BF99
:105690006FF0000088BF01207047521E22BF13F830
:1056A000010B11F801CBB0EB0C00F6D0521C08BF77
:1056B0001046704781423ABF53189842FDF7EEB842
:1056C0008018990707D0521E24BF13F8011D00F857
:1056D000011DF6D8704781071BD1103A07D330B4AB
:1056E00033E93210103A20E93210F9D230BC1032CE
:1056F000121F24BF53F8041D40F8041DF8D838BF0A
:10570000121D521E24BF13F8011D00F8011DF8D808
:105710007047121FF3D3C10709D153F8041D121F9C
:1057200020F8041D4FEA31414180F6D2E7E753F8F3
:10573000041D121F00F8041D4FEA3121A0F80110CA
:105740004FEA3141C170F2D2D9E780B500F04EF88E
:1057500002BD80B500F04EF802BD704738B50400B8
:105760000D00100000F04DF802002900200000F0AC
:1057700049F831BD704701207047704780B5FFF789
:10578000B0FE02BD002101610021416170477047F8
:1057900080B500F043F801BD80B54169102901D3FF
:1057A000006801E000F03FF802BD80B500F03FF86E
:1057B00002BD704738B50C001500012D06D1FFF76A
:1057C000B1FB69462044FFF787FE07E0FFF7AAFB1D
:1057D0009DF800202900204400F033F831BD10B5B9
:1057E0000400200000F035F8200010BD80B500F066
:1057F00034F802BD80B508000122002100F030F825
:1058000002BD704738B504000D001000FFF7F9FF26
:1058100002002900200000F02CF831BD002818BF3C
:1058200000F037B8704780B5FFF72FFC02BD38B5E0
:1058300004000D001100200000F02DF8256020006C
:1058400032BD10B50400D2B22000FEF7AFFF200039
:1058500010BD02681144016070475FF0FF3070476F
:1058600080B50021002801D1080001E000F014F803
:1058700002BD38B51500042000F020F80400002C0B
:1058800005D02800FFF7BDFF0068206000E0002081
:1058900031BDFBF708BC704710B5044600E08047F7
:1058A0002046FAF789FC30B9034800680028F6D191
:1058B00000F006F8F4E710BD7849002008007047B2
:1058C000FBF784BE70B57F4C5FF4E132012120000C
:1058D000FEF754FD7C4D2A007C49FFF774F87C4E9E
:1058E0003000FEF755FF2A007A49FFF76CF83200C6
:1058F00021007948FEF760F82A007849FFF763F83D
:1059000070BD010049B2002908D4012210F01F0126
:105910008A40734940B2400941F820207047E0B501
:1059200000F067F800F01FF800F090F800F0A0F821
:105930006448FEF7DFFB6648FEF71EFE002001907C
:105940000120009000234FF4806266490FF20D00A1
:10595000FEF7C8F8FEF7ADF9FEE7000080B55E4837
:10596000FDF78CFD01BD6048016831F0E061016028
:10597000016851F0007101605C48016851F48031A8
:10598000016001688903FCD559490A6832F01002A8
:105990000A600A6852F010020A600A68D208D2004F
:1059A00052F004020A6053490A6832F0F0020A60B9
:1059B0000A6832F460520A600A6832F4E06252F413
:1059C00080620A600A6832F47C1252F4E8120A60BB
:1059D000026852F0807202600068086880088000E7
:1059E00050F002000860086810F00C000828FAD196
:1059F00070473E48016851F0010101600168890764
:105A0000FCD5016831F0F80151F08001016039499D
:105A100000220A600A6812F00C0FFBD1016831F015
:105A20008071016001688901FCD4016831F41021A2
:105A3000016001688903FCD4016831F480210160B0
:105A40002D48016851F08071016070472B490A6848
:105A500012F07F422A4802430A602A48016811F086
:105A60007F4101602848016851F0070101607047DB
:105A700080B5002000902548016851F001010160C7
:105A8000006810F00100009000980E20FFF739FF29
:105A90000B20FFF736FF01BD80B50100C9B20948F0
:105AA000FEF7C3FB01BD80B50648FEF74CFC01BD07
:105AB0001748016831F48001016001200449087130
:105AC00070470000D44700207449002019440008A2
:105AD00060460020A947000830470020CD39000863
